{
  "_format": "hh-sol-artifact-1",
  "contractName": "Verification",
  "sourceName": "contracts/verify.sol",
  "abi": [
    {
      "inputs": [],
      "stateMutability": "nonpayable",
      "type": "constructor"
    },
    {
      "anonymous": false,
      "inputs": [
        {
          "indexed": true,
          "internalType": "address",
          "name": "_exporter",
          "type": "address"
        },
        {
          "indexed": false,
          "internalType": "string",
          "name": "_ipfsHash",
          "type": "string"
        }
      ],
      "name": "addHash",
      "type": "event"
    },
    {
      "inputs": [
        {
          "internalType": "bytes32",
          "name": "_hash",
          "type": "bytes32"
        },
        {
          "internalType": "string",
          "name": "_ipfs",
          "type": "string"
        }
      ],
      "name": "addDocHash",
      "outputs": [],
      "stateMutability": "nonpayable",
      "type": "function"
    },
    {
      "inputs": [
        {
          "internalType": "address",
          "name": "_add",
          "type": "address"
        },
        {
          "internalType": "string",
          "name": "_info",
          "type": "string"
        }
      ],
      "name": "add_Exporter",
      "outputs": [],
      "stateMutability": "nonpayable",
      "type": "function"
    },
    {
      "inputs": [
        {
          "internalType": "address",
          "name": "_add",
          "type": "address"
        },
        {
          "internalType": "string",
          "name": "_newInfo",
          "type": "string"
        }
      ],
      "name": "alter_Exporter",
      "outputs": [],
      "stateMutability": "nonpayable",
      "type": "function"
    },
    {
      "inputs": [
        {
          "internalType": "address",
          "name": "_newOwner",
          "type": "address"
        }
      ],
      "name": "changeOwner",
      "outputs": [],
      "stateMutability": "nonpayable",
      "type": "function"
    },
    {
      "inputs": [],
      "name": "count_Exporters",
      "outputs": [
        {
          "internalType": "uint16",
          "name": "",
          "type": "uint16"
        }
      ],
      "stateMutability": "view",
      "type": "function"
    },
    {
      "inputs": [],
      "name": "count_hashes",
      "outputs": [
        {
          "internalType": "uint16",
          "name": "",
          "type": "uint16"
        }
      ],
      "stateMutability": "view",
      "type": "function"
    },
    {
      "inputs": [
        {
          "internalType": "bytes32",
          "name": "_hash",
          "type": "bytes32"
        }
      ],
      "name": "deleteHash",
      "outputs": [],
      "stateMutability": "nonpayable",
      "type": "function"
    },
    {
      "inputs": [
        {
          "internalType": "address",
          "name": "_add",
          "type": "address"
        }
      ],
      "name": "delete_Exporter",
      "outputs": [],
      "stateMutability": "nonpayable",
      "type": "function"
    },
    {
      "inputs": [
        {
          "internalType": "bytes32",
          "name": "_hash",
          "type": "bytes32"
        }
      ],
      "name": "findDocHash",
      "outputs": [
        {
          "internalType": "uint256",
          "name": "",
          "type": "uint256"
        },
        {
          "internalType": "uint256",
          "name": "",
          "type": "uint256"
        },
        {
          "internalType": "string",
          "name": "",
          "type": "string"
        },
        {
          "internalType": "string",
          "name": "",
          "type": "string"
        }
      ],
      "stateMutability": "view",
      "type": "function"
    },
    {
      "inputs": [
        {
          "internalType": "address",
          "name": "_add",
          "type": "address"
        }
      ],
      "name": "getExporterInfo",
      "outputs": [
        {
          "internalType": "string",
          "name": "",
          "type": "string"
        }
      ],
      "stateMutability": "view",
      "type": "function"
    },
    {
      "inputs": [],
      "name": "owner",
      "outputs": [
        {
          "internalType": "address",
          "name": "",
          "type": "address"
        }
      ],
      "stateMutability": "view",
      "type": "function"
    }
  ],
  "bytecode": "0x608060405260008060006101000a81548161ffff021916908361ffff16021790555060008060026101000a81548161ffff021916908361ffff16021790555034801561004a57600080fd5b5033600060046101000a81548173ffffffffffffffffffffffffffffffffffffffff021916908373ffffffffffffffffffffffffffffffffffffffff160217905550611b6d8061009b6000396000f3fe608060405234801561001057600080fd5b50600436106100a95760003560e01c806363f0bfce1161007157806363f0bfce146101675780636ed73e48146101835780638da5cb5b146101a1578063a6f9dae1146101bf578063bf3ccf48146101db578063cf3457bf146101f7576100a9565b806305c8dc19146100ae57806324ac89cb146100de57806343f6f548146100fa5780634cf00d3f14610118578063505cd5d01461014b575b600080fd5b6100c860048036038101906100c3919061126a565b610213565b6040516100d59190611604565b60405180910390f35b6100f860048036038101906100f3919061126a565b6102e7565b005b6101026104e8565b60405161010f9190611726565b60405180910390f35b610132600480360381019061012d91906112f7565b6104fc565b6040516101429493929190611741565b60405180910390f35b61016560048036038101906101609190611297565b610683565b005b610181600480360381019061017c91906112f7565b6107f0565b005b61018b610a2c565b6040516101989190611726565b60405180910390f35b6101a9610a3e565b6040516101b691906115c5565b60405180910390f35b6101d960048036038101906101d4919061126a565b610a64565b005b6101f560048036038101906101f09190611324565b610baa565b005b610211600480360381019061020c9190611297565b610ed4565b005b6060600260008373ffffffffffffffffffffffffffffffffffffffff1673ffffffffffffffffffffffffffffffffffffffff168152602001908152602001600020600101805461026290611890565b80601f016020809104026020016040519081016040528092919081815260200182805461028e90611890565b80156102db5780601f106102b0576101008083540402835291602001916102db565b820191906000526020600020905b8154815290600101906020018083116102be57829003601f168201915b50505050509050919050565b600060049054906101000a900473ffffffffffffffffffffffffffffffffffffffff1673ffffffffffffffffffffffffffffffffffffffff163373ffffffffffffffffffffffffffffffffffffffff1614610377576040517f08c379a000000000000000000000000000000000000000000000000000000000815260040161036e90611646565b60405180910390fd5b6000600260008373ffffffffffffffffffffffffffffffffffffffff1673ffffffffffffffffffffffffffffffffffffffff1681526020019081526020016000206000015414156103fd576040517f08c379a00000000000000000000000000000000000000000000000000000000081526004016103f4906116c6565b60405180910390fd5b6000600260008373ffffffffffffffffffffffffffffffffffffffff1673ffffffffffffffffffffffffffffffffffffffff1681526020019081526020016000206000018190555060405180602001604052806000815250600260008373ffffffffffffffffffffffffffffffffffffffff1673ffffffffffffffffffffffffffffffffffffffff16815260200190815260200160002060010190805190602001906104aa9291906110c1565b5060008081819054906101000a900461ffff16809291906104ca90611866565b91906101000a81548161ffff021916908361ffff1602179055505050565b600060029054906101000a900461ffff1681565b60008060608060016000868152602001908152602001600020600001546001600087815260200190815260200160002060010154600160008881526020019081526020016000206002016001600089815260200190815260200160002060030181805461056890611890565b80601f016020809104026020016040519081016040528092919081815260200182805461059490611890565b80156105e15780601f106105b6576101008083540402835291602001916105e1565b820191906000526020600020905b8154815290600101906020018083116105c457829003601f168201915b505050505091508080546105f490611890565b80601f016020809104026020016040519081016040528092919081815260200182805461062090611890565b801561066d5780601f106106425761010080835404028352916020019161066d565b820191906000526020600020905b81548152906001019060200180831161065057829003601f168201915b5050505050905093509350935093509193509193565b600060049054906101000a900473ffffffffffffffffffffffffffffffffffffffff1673ffffffffffffffffffffffffffffffffffffffff163373ffffffffffffffffffffffffffffffffffffffff1614610713576040517f08c379a000000000000000000000000000000000000000000000000000000000815260040161070a90611646565b60405180910390fd5b6000600260008573ffffffffffffffffffffffffffffffffffffffff1673ffffffffffffffffffffffffffffffffffffffff168152602001908152602001600020600001541415610799576040517f08c379a0000000000000000000000000000000000000000000000000000000008152600401610790906116c6565b60405180910390fd5b8181600260008673ffffffffffffffffffffffffffffffffffffffff1673ffffffffffffffffffffffffffffffffffffffff16815260200190815260200160002060010191906107ea929190611147565b50505050565b806001600082815260200190815260200160002060020160405160200161081791906115ae565b60405160208183030381529060405280519060200120600260003373ffffffffffffffffffffffffffffffffffffffff1673ffffffffffffffffffffffffffffffffffffffff16815260200190815260200160002060010160405160200161087f91906115ae565b60405160208183030381529060405280519060200120146108d5576040517f08c379a00000000000000000000000000000000000000000000000000000000081526004016108cc90611666565b60405180910390fd5b6000600260003373ffffffffffffffffffffffffffffffffffffffff1673ffffffffffffffffffffffffffffffffffffffff16815260200190815260200160002060000154141561095b576040517f08c379a0000000000000000000000000000000000000000000000000000000008152600401610952906116a6565b60405180910390fd5b6000600160008481526020019081526020016000206001015414156109b5576040517f08c379a00000000000000000000000000000000000000000000000000000000081526004016109ac90611686565b60405180910390fd5b60006001600084815260200190815260200160002060000181905550600060016000848152602001908152602001600020600101819055506000600281819054906101000a900461ffff1680929190610a0d90611866565b91906101000a81548161ffff021916908361ffff160217905550505050565b60008054906101000a900461ffff1681565b600060049054906101000a900473ffffffffffffffffffffffffffffffffffffffff1681565b600060049054906101000a900473ffffffffffffffffffffffffffffffffffffffff1673ffffffffffffffffffffffffffffffffffffffff163373ffffffffffffffffffffffffffffffffffffffff1614610af4576040517f08c379a0000000000000000000000000000000000000000000000000000000008152600401610aeb90611646565b60405180910390fd5b80600073ffffffffffffffffffffffffffffffffffffffff168173ffffffffffffffffffffffffffffffffffffffff161415610b65576040517f08c379a0000000000000000000000000000000000000000000000000000000008152600401610b5c90611626565b60405180910390fd5b81600060046101000a81548173ffffffffffffffffffffffffffffffffffffffff021916908373ffffffffffffffffffffffffffffffffffffffff1602179055505050565b6000600260003373ffffffffffffffffffffffffffffffffffffffff1673ffffffffffffffffffffffffffffffffffffffff168152602001908152602001600020600001541415610c30576040517f08c379a0000000000000000000000000000000000000000000000000000000008152600401610c27906116a6565b60405180910390fd5b60006001600085815260200190815260200160002060000154148015610c6c575060006001600085815260200190815260200160002060010154145b610cab576040517f08c379a0000000000000000000000000000000000000000000000000000000008152600401610ca290611706565b60405180910390fd5b60006040518060800160405280438152602001428152602001600260003373ffffffffffffffffffffffffffffffffffffffff1673ffffffffffffffffffffffffffffffffffffffff1681526020019081526020016000206001018054610d1190611890565b80601f0160208091040260200160405190810160405280929190818152602001828054610d3d90611890565b8015610d8a5780601f10610d5f57610100808354040283529160200191610d8a565b820191906000526020600020905b815481529060010190602001808311610d6d57829003601f168201915b5050505050815260200184848080601f016020809104026020016040519081016040528093929190818152602001838380828437600081840152601f19601f820116905080830192505050505050508152509050806001600086815260200190815260200160002060008201518160000155602082015181600101556040820151816002019080519060200190610e229291906110c1565b506060820151816003019080519060200190610e3f9291906110c1565b509050506000600281819054906101000a900461ffff1680929190610e63906118c2565b91906101000a81548161ffff021916908361ffff160217905550503373ffffffffffffffffffffffffffffffffffffffff167f331f916dac8170a5e3a8a5c82c9de7950bb6cadfb098253c080cb72851b264708484604051610ec69291906115e0565b60405180910390a250505050565b600060049054906101000a900473ffffffffffffffffffffffffffffffffffffffff1673ffffffffffffffffffffffffffffffffffffffff163373ffffffffffffffffffffffffffffffffffffffff1614610f64576040517f08c379a0000000000000000000000000000000000000000000000000000000008152600401610f5b90611646565b60405180910390fd5b6000600260008573ffffffffffffffffffffffffffffffffffffffff1673ffffffffffffffffffffffffffffffffffffffff1681526020019081526020016000206000015414610fe9576040517f08c379a0000000000000000000000000000000000000000000000000000000008152600401610fe0906116e6565b60405180910390fd5b43600260008573ffffffffffffffffffffffffffffffffffffffff1673ffffffffffffffffffffffffffffffffffffffff168152602001908152602001600020600001819055508181600260008673ffffffffffffffffffffffffffffffffffffffff1673ffffffffffffffffffffffffffffffffffffffff1681526020019081526020016000206001019190611081929190611147565b5060008081819054906101000a900461ffff16809291906110a1906118c2565b91906101000a81548161ffff021916908361ffff16021790555050505050565b8280546110cd90611890565b90600052602060002090601f0160209004810192826110ef5760008555611136565b82601f1061110857805160ff1916838001178555611136565b82800160010185558215611136579182015b8281111561113557825182559160200191906001019061111a565b5b50905061114391906111cd565b5090565b82805461115390611890565b90600052602060002090601f01602090048101928261117557600085556111bc565b82601f1061118e57803560ff19168380011785556111bc565b828001600101855582156111bc579182015b828111156111bb5782358255916020019190600101906111a0565b5b5090506111c991906111cd565b5090565b5b808211156111e65760008160009055506001016111ce565b5090565b6000813590506111f981611b09565b92915050565b60008135905061120e81611b20565b92915050565b60008083601f84011261122a57611229611950565b5b8235905067ffffffffffffffff8111156112475761124661194b565b5b60208301915083600182028301111561126357611262611955565b5b9250929050565b6000602082840312156112805761127f61195f565b5b600061128e848285016111ea565b91505092915050565b6000806000604084860312156112b0576112af61195f565b5b60006112be868287016111ea565b935050602084013567ffffffffffffffff8111156112df576112de61195a565b5b6112eb86828701611214565b92509250509250925092565b60006020828403121561130d5761130c61195f565b5b600061131b848285016111ff565b91505092915050565b60008060006040848603121561133d5761133c61195f565b5b600061134b868287016111ff565b935050602084013567ffffffffffffffff81111561136c5761136b61195a565b5b61137886828701611214565b92509250509250925092565b61138d816117d0565b82525050565b600061139f83856117b4565b93506113ac838584611824565b6113b583611964565b840190509392505050565b60006113cb826117a9565b6113d581856117b4565b93506113e5818560208601611833565b6113ee81611964565b840191505092915050565b6000815461140681611890565b61141081866117c5565b9450600182166000811461142b576001811461143c5761146f565b60ff1983168652818601935061146f565b61144585611794565b60005b8381101561146757815481890152600182019150602081019050611448565b838801955050505b50505092915050565b6000611485600f836117b4565b915061149082611975565b602082019050919050565b60006114a86017836117b4565b91506114b38261199e565b602082019050919050565b60006114cb602e836117b4565b91506114d6826119c7565b604082019050919050565b60006114ee601c836117b4565b91506114f982611a16565b602082019050919050565b60006115116026836117b4565b915061151c82611a3f565b604082019050919050565b60006115346017836117b4565b915061153f82611a8e565b602082019050919050565b60006115576017836117b4565b915061156282611ab7565b602082019050919050565b600061157a601c836117b4565b915061158582611ae0565b602082019050919050565b611599816117ec565b82525050565b6115a88161181a565b82525050565b60006115ba82846113f9565b915081905092915050565b60006020820190506115da6000830184611384565b92915050565b600060208201905081810360008301526115fb818486611393565b90509392505050565b6000602082019050818103600083015261161e81846113c0565b905092915050565b6000602082019050818103600083015261163f81611478565b9050919050565b6000602082019050818103600083015261165f8161149b565b9050919050565b6000602082019050818103600083015261167f816114be565b9050919050565b6000602082019050818103600083015261169f816114e1565b9050919050565b600060208201905081810360008301526116bf81611504565b9050919050565b600060208201905081810360008301526116df81611527565b9050919050565b600060208201905081810360008301526116ff8161154a565b9050919050565b6000602082019050818103600083015261171f8161156d565b9050919050565b600060208201905061173b6000830184611590565b92915050565b6000608082019050611756600083018761159f565b611763602083018661159f565b818103604083015261177581856113c0565b9050818103606083015261178981846113c0565b905095945050505050565b60008190508160005260206000209050919050565b600081519050919050565b600082825260208201905092915050565b600081905092915050565b60006117db826117fa565b9050919050565b6000819050919050565b600061ffff82169050919050565b600073ffffffffffffffffffffffffffffffffffffffff82169050919050565b6000819050919050565b82818337600083830152505050565b60005b83811015611851578082015181840152602081019050611836565b83811115611860576000848401525b50505050565b6000611871826117ec565b91506000821415611885576118846118ed565b5b600182039050919050565b600060028204905060018216806118a857607f821691505b602082108114156118bc576118bb61191c565b5b50919050565b60006118cd826117ec565b915061ffff8214156118e2576118e16118ed565b5b600182019050919050565b7f4e487b7100000000000000000000000000000000000000000000000000000000600052601160045260246000fd5b7f4e487b7100000000000000000000000000000000000000000000000000000000600052602260045260246000fd5b600080fd5b600080fd5b600080fd5b600080fd5b600080fd5b6000601f19601f8301169050919050565b7f496e76616c696420616464726573730000000000000000000000000000000000600082015250565b7f43616c6c6572206973206e6f7420746865206f776e6572000000000000000000600082015250565b7f43616c6c6572206973206e6f7420617574686f726973656420746f206564697460008201527f207468697320646f63756d656e74000000000000000000000000000000000000602082015250565b7f446f63756d656e74206861736820646f6573206e6f7420657869737400000000600082015250565b7f43616c6c6572206e6f7420617574686f726973656420746f2061646420646f6360008201527f756d656e74730000000000000000000000000000000000000000000000000000602082015250565b7f4578706f7274657220646f6573206e6f74206578697374000000000000000000600082015250565b7f4578706f7274657220616c726561647920657869737473000000000000000000600082015250565b7f446f63756d656e74206861736820616c72656164792065786973747300000000600082015250565b611b12816117d0565b8114611b1d57600080fd5b50565b611b29816117e2565b8114611b3457600080fd5b5056fea2646970667358221220a30e8c624d80cff523ff57c8c1e2e71191fbf839ae3581f2778a3197ad4e75c964736f6c63430008060033",
  "linkReferences": {},
  "deployedLinkReferences": {}
}